:100000000C946C010C9496130C946B130C94401389
:100010000C9415130C94EA120C94BF120C949412C5
:100020000C9469120C949D010C949D010C949D01FB
:100030000C949D010C949D010C949D010C949D01C8
:100040000C949D010C94AB140C949D010C949D0197
:100050000C949D010C949D010C949D010C941F1215
:100060000C949D010C94EB130C94C1130C949D0102
:100070000C949D010C949D010C949D010C949D0188
:100080000C947D140C949D010C949D010C949D0185
:100090000C949D010C949D010C949D010C94D91419
:1000A0000C949D010C949D010C944F140C949D0193
:1000B0000C949D010C949D010C949D010C942114B1
:1000C0000C949D010C949D010C949D010C949D0138
:1000D0000C949D010C949D010C949D010C949D0128
:1000E0000C949D010C9405040C94CC060C94D40340
:1000F0000C9422070C9460020C94FD150C94A90238
:100100000C94DB060C945A020C9425020C942D02DC
:100110000C94C2020C94A3030C943E020C943D0474
:100120000C943B030C94D4020C9464020C941303BF
:100130000C94A5030C94F8080C9431030C94E3037D
:100140000C94B8020C94CC020C948A040C94A7036F
:100150000C94FA020C9431020C94A1020C9416092E
:100160000C94CB060C9495050C943A020C94520214
:100170000C9434020C9422090C9448020C9427032A
:100180000C941D030C94EE060C944C020C946A091A
:100190000C9409030C94F5060C9413020C94DC02E5
:1001A0000C94F0020C947D0B0C9444020C945602B7
:1001B0000C94E6020C94AE020C94F7030C94BA086B
:1001C0000C9429020C94A4030C94A6030C940E0224
:1001D00000000A0B02090C0D0E08070304010000C1
:1001E000000000000000000000000000000000000F
:1001F00000000000000000000000000012111000CC
:1002000000000000000000000000000000000000EE
:1002100000000000000000002200250028002B0044
:100220002E003100340002010000050108010B011D
:1002300000002100240027002A002D003000330098
:1002400001010000040107010A0105050505070574
:1002500008080808020202020A0A08080404040442
:10026000010101010101010103030303030303036E
:10027000040707070C0C0C0C0C0C0C0C02020202FD
:1002800006060606060606060B0B0B0B0B0B0B0BE6
:100290000102102020080810204010204080020198
:1002A000020108040201010204081020408080407D
:1002B000201008040201800402018040201008047C
:1002C000020108040201010204081020408001021A
:1002D000040810204080FD1511241FBECFEFD1E28D
:1002E000DEBFCDBF00E00CBF12E0A0E0B2E0EEE365
:1002F000FCE300E00BBF02C007900D92A038B107ED
:10030000D9F725E0A0E8B2E001C01D92AE36B207F1
:10031000E1F711E0CCE6D1E000E006C02197010949
:10032000802FFE010E94FF1BCB36D10780E008071B
:10033000A9F70E9436170C941D1E0C9400008091A2
:100340007B00877F80937B0080E480937C0080919A
:100350007A00806480937A0080917A0086FDFCCFD9
:100360008091780090917900089591E090936003D6
:1003700080935F0310925E0310925D03089590E0F6
:10038000FC01E057FD4F2491865B9D4FFC01849159
:10039000882399F090E0880F991FFC01E05DFD4FE4
:1003A000A591B491FC01EA5EFD4F859194918FB7C0
:1003B000F894EC91E22BEC938FBF0895282F30E056
:1003C000F901E053FE4F9491F901E057FD4F44913C
:1003D000265B3D4FF9012491222309F435C099236E
:1003E00011F191509231F8F4E92FF0E08827E450B0
:1003F000FE4F8F4F0C94FF1B2D0231020E0225027F
:100400002902130234023A023E02440248024C021C
:100410005202560213025A02600264028091800066
:100420008F7780938000E22FF0E0EE0FFF1FEA5EEF
:10043000FD4FA591B4918FB7F894EC91611148C02C
:1004400040954E234C938FBF0895809180008F7DFF
:10045000E8CF80918000877FE4CF84B58F7784BD1B
:10046000E2CF84B58F7DFBCF8091B0008F778093F2
:10047000B000D9CF8091B0008F7DF9CF80919000EE
:100480008F7780939000CFCF809190008F7DF9CFB0
:1004900080919000877FF5CF8091A0008F77809327
:1004A000A000C1CF8091A0008F7DF9CF8091A000E6
:1004B000877FF5CF809120018F7780932001B3CF84
:1004C000809120018F7DF9CF80912001877FF5CF2A
:1004D0004E2BB8CF1F93CF93DF93182FEB010E94C1
:1004E000BF01209739F460E0812FDF91CF911F91F8
:1004F0000C94DE01CF3FD10511F461E0F5CFE12F7F
:10050000F0E0E053FE4FE491E150E23108F0B3C077
:10051000F0E08827E157FD4F8F4F0C94FF1BA1029D
:10052000A902AE02B802C2023B03CC02D402DC0232
:10053000E602F002FA02090313033B031D0327033B
:10054000310384B5806884BDC7BDDF91CF911F9111
:10055000089584B5806284BDC8BDF7CF80918000C6
:10056000806880938000D0938900C0938800EDCF8D
:1005700080918000806280938000D0938B00C09334
:100580008A00E3CF80918000886080938000D093C0
:100590008D00C0938C00D9CF8091B000806880938B
:1005A000B000C093B300D1CF8091B000806280933F
:1005B000B000C093B400C9CF809190008068809350
:1005C0009000D0939900C0939800BFCF8091900085
:1005D000806280939000D0939B00C0939A00B5CF27
:1005E00080919000886080939000D0939D00C0938C
:1005F0009C00ABCF8091A00080688093A000809188
:10060000A0008F7B8093A000D093A900C093A80086
:100610009CCF8091A00080628093A000D093AB001B
:10062000C093AA0092CF8091A00088608093A00020
:10063000D093AD00C093AC0088CF8091200180683A
:1006400080932001D0932901C09328017ECF80910F
:100650002001806280932001D0932B01C0932A0156
:1006600074CF80912001886080932001D0932D0168
:10067000C0932C016ACFC038D1050CF03ECF33CFE8
:100680003FB7F89480910B0390910C03A0910D0358
:10069000B0910E0326B5A89B05C02F3F19F0019617
:1006A000A11DB11D3FBFBA2FA92F982F8827BC01CC
:1006B000CD01620F711D811D911D42E0660F771FF4
:1006C000881F991F4A95D1F708958F929F92AF92F4
:1006D000BF92CF92DF92EF92FF924B015C010E949A
:1006E00040036B017C010E9440036C197D098E0957
:1006F0009F09683E734081059105A8F321E0821AA5
:100700009108A108B10888EEC80E83E0D81EE11C4C
:10071000F11C81149104A104B10429F7FF90EF901A
:10072000DF90CF90BF90AF909F908F9008952FB79C
:10073000F8946091070370910803809109039091E8
:100740000A032FBF08950895089508950895AF925C
:10075000BF92CF92DF92EF92FF920F931F93CF93AE
:10076000DF936C017B018B01040F151FEB015E0110
:10077000AE18BF08C017D10759F06991D601ED91A5
:10078000FC910190F081E02DC6011995892B79F734
:10079000C501DF91CF911F910F91FF90EF90DF90F6
:1007A000CF90BF90AF900895FC01538D448D252FBD
:1007B00030E0842F90E0821B930B541710F0CF96FB
:1007C000089501970895FC01918D828D981761F02D
:1007D000A28DAE0FBF2FB11D5D968C91928D9F5F44
:1007E0009F73928F90E008958FEF9FEF0895FC0123
:1007F000918D828D981731F0828DE80FF11D858DD6
:1008000090E008958FEF9FEF0895FC01918D228D68
:10081000892F90E0805C9F4F821B91098F739927ED
:10082000089581E693E00E94050421E0892B09F4F4
:1008300020E0822F0895FC01A48DA80FB92FB11DCF
:10084000A35ABF4F2C91848D90E001968F73992706
:10085000848FA689B7892C93A089B1898C918370E4
:1008600080648C93938D848D981306C00288F389DD
:10087000E02D80818F7D80830895EF92FF920F930A
:100880001F93CF93DF93EC0181E0888F9B8D8C8D3C
:1008900098131AC0E889F989808185FF15C09FB730
:1008A000F894EE89FF896083E889F98980818370F3
:1008B000806480839FBF81E090E0DF91CF911F91A2
:1008C0000F91FF90EF900895F62E0B8D10E00F5FC3
:1008D0001F4F0F731127E02E8C8D8E110CC00FB699
:1008E00007FCFACFE889F989808185FFF5CFCE0131
:1008F0000E941B04F1CFEB8DEC0FFD2FF11DE35A8D
:10090000FF4FF0829FB7F8940B8FEA89FB898081B3
:100910008062CFCFCF93DF93EC01888D8823B9F02D
:10092000AA89BB89E889F9898C9185FD03C08081FA
:1009300086FD0DC00FB607FCF7CF8C9185FFF2CF77
:10094000808185FFEDCFCE010E941B04E9CFDF91AE
:10095000CF91089580E090E0892B29F00E94110446
:1009600081110E94000080E090E0892B49F080E036
:1009700090E0892B29F00E94000081110E94000064
:1009800080E090E0892B49F080E090E0892B29F00D
:100990000E94000081110E94000080E090E0892BFD
:1009A00049F080E090E0892B29F00E94000081113D
:1009B0000C9400000895AF92BF92CF92DF92EF9215
:1009C000FF920F931F93CF93DF936B017A01EC019A
:1009D000CC51DD4F28813CE0389F8001399F100DBC
:1009E0001124A0909B04B12C27FF1FC0FB01118292
:1009F000108288818F5F888388819801280F311D3C
:100A000087FD3A95F6012A153B051CF488818C3048
:100A1000C4F180819181049680349C4908F473C0AC
:100A2000F60180819181049670C088819801280F19
:100A3000311D87FD3A952A153B05DCF68881A80112
:100A4000480F511D87FD5A95FA01EE0FFF1FE40F65
:100A5000F51FE55FFB4F808186FFCBCF8881F801D2
:100A6000E80FF11D87FDFA95CF01EE0FFF1FE80F8C
:100A7000F91FE55FFB4F808160E08F730E94DE010C
:100A8000B8CF808191812881A801420F511D27FD97
:100A90005A959A01FA01EE0FFF1FE20FF31FE55F6F
:100AA000FB4F21813281820F931FF7019183808355
:100AB00088819801280F311D87FD3A95F901EE0FC5
:100AC000FF1FE20FF31FE55FFB4F808186FF22C00F
:100AD0008881080F111D87FD1A95F801EE0FFF1F81
:100AE000E00FF11FE55FFB4F808161E08F73DF91C5
:100AF000CF911F910F91FF90EF90DF90CF90BF901B
:100B0000AF900C94DE0180E49CE9F701918380832F
:100B10008FEF8883DF91CF911F910F91FF90EF901E
:100B2000DF90CF90BF90AF90089508952091C102BB
:100B3000260F3327331F21323105ECF42091570360
:100B4000FC0190E080E0243069F082E00895A091FB
:100B5000C1022191AC014F555D4FA40FB52FB11DBE
:100B60002C930196861798F38091C102680F6093C9
:100B7000C10280E0089581E008951092570381E05A
:100B8000809336031092310361E084E10E94DE011C
:100B900061E085E10E94DE01E9EBF0E080818E7F7B
:100BA000808380818D7F808388E48093B80085E492
:100BB0008093BC000895CF93DF9391E09093A002BF
:100BC0008823B9F0C091B800D091BA008091BC00E0
:100BD0008A7B8093BC0060E084E10E94DE0160E0DB
:100BE00085E10E94DE010E94BD05D093BA00C0934A
:100BF000B800DF91CF910895CF92DF92EF92FF92EC
:100C00000F931F93CF93DF93D82FC62F613208F035
:100C100098C00E9440036B017C01809157038111B1
:100C20006BC081E080935703809336039FEF9093CE
:100C30003503109234039C0F909333038093320357
:100C400080913203DD0FD82BD09332038091310392
:100C5000813009F078C0109231030E9440036B018B
:100C60007C01809132038093BB0080915903909165
:100C70005A03A0915B03B0915C03892B8A2B8B2BC9
:100C8000A1F00E9440030091590310915A03209152
:100C90005B0330915C036C197D098E099F0906176F
:100CA00017072807390708F448C08091BC0083FD66
:100CB000D8CF85EC8093BC000E9440036B017C017F
:100CC00080915703813009F440C0809134038C1720
:100CD00010F4C0913403E1E1F3E0A7E3B3E080E076
:100CE0008C1355C08C2FDF91CF911F910F91FF90E6
:100CF000EF90DF90CF9008958091590390915A031F
:100D0000A0915B03B0915C03892B8A2B8B2B09F498
:100D100084CF0E9440030091590310915A032091FF
:100D20005B0330915C036C197D098E099F090617DE
:100D300017072807390708F070CF809158030E94E1
:100D4000DB05C0E0CFCF85EEB5CF80915903909100
:100D50005A03A0915B03B0915C03892B8A2B8B2BE8
:100D600009F4AECF0E9440030091590310915A0339
:100D700020915B0330915C036C197D098E099F09FA
:100D8000061717072807390708F09ACFD6CF919191
:100D90009D938F5FA5CF0895E091100380910F037D
:100DA000E81730F4F0E0E95CFC4F808190E00895B2
:100DB0008FEF9FEF08959091100380910F032FEF15
:100DC0003FEF981748F4E92FF0E0E95CFC4F2081F1
:100DD00030E09F5F90931003C901089580910F0345
:100DE00090911003891B990B0895CF92DF92EF9297
:100DF000FF920F931F93CF93DF937C01CB018A0166
:100E000020916003222389F0EB016B01C40ED51EF3
:100E1000CC15DD0569F06991D701ED91FC91019048
:100E2000F081E02DC7011995F3CF642F0E9496053C
:100E3000C801DF91CF911F910F91FF90EF90DF904C
:100E4000CF900895CF93DF931F92CDB7DEB769831C
:100E5000209160032223F9F020915D03203258F0A5
:100E600021E030E0FC013383228390E080E00F90AA
:100E7000DF91CF91089580915E03E82FF0E0E05874
:100E8000FD4F998190838F5F80935E0380935D0314
:100E900081E090E0ECCF61E0CE0101960E949605E2
:100EA000F7CFCF92DF92EF92FF920F931F93CF93E2
:100EB000DF93D0915D0381E0D13208F09CC0C091F6
:100EC0005F030E9440036B017C01809157038111F5
:100ED0006CC082E08093570381E0809336038FEFEC
:100EE0008093350310923403D0933303A0E8B2E02B
:100EF000E1E1F3E080E0D8138DC0109232038091DD
:100F00003203CC0FC82BC093320380913103813060
:100F100009F084C0109231030E9440036B017C01F0
:100F2000809132038093BB008091590390915A03C2
:100F3000A0915B03B0915C03892B8A2B8B2BA1F0D2
:100F40000E9440030091590310915A0320915B03C2
:100F500030915C036C197D098E099F0906171707EC
:100F60002807390708F442C08091BC0083FDD8CF20
:100F700085EC8093BC000E9440036B017C01809152
:100F80005703823009F44CC0809135038F3F09F438
:100F900069C080913503803209F466C080913503C1
:100FA000803309F463C084E026C080915903909196
:100FB0005A03A0915B03B0915C03892B8A2B8B2B86
:100FC00009F483CF0E9440030091590310915A0302
:100FD00020915B0330915C036C197D098E099F0998
:100FE000061717072807390708F06FCF80915803B5
:100FF0000E94DB0585E010925E0310925D03109263
:101000006003DF91CF911F910F91FF90EF90DF90E0
:10101000CF9008959D9191938F5F6DCF85EEA9CF6D
:101020008091590390915A03A0915B03B0915C03A6
:10103000892B8A2B8B2B09F4A2CF0E9440030091AD
:10104000590310915A0320915B0330915C036C1992
:101050007D098E099F09061717072807390708F029
:101060008ECFC4CF80E0C7CF82E0C5CF83E0C3CFAF
:101070000F931F93CF938C01C62FFC0184810E9494
:10108000B501F80164856C2B8CEF94E00E94220777
:101090008CEF94E0CF911F910F910C945107FF9228
:1010A0000F931F93CF93DF93EC01F62E142F052F90
:1010B0008B810E94B50189819A81DC01ED91FC91BF
:1010C0000190F081E02D6F2D199589819A81DC01C5
:1010D000ED91FC910190F081E02D602F19958981AF
:1010E0009A81DC01ED91FC910190F081E02D612F5E
:1010F000199589819A810E9451078883DF91CF9148
:101100001F910F91FF9008950F931F93CF93DF933B
:10111000EC01062F142F8B810E94B50189819A81E1
:10112000DC01ED91FC910190F081E02D602F19958B
:1011300089819A81DC01ED91FC910190F081E02D93
:10114000612F199589819A810E9451078883DF91C7
:10115000CF911F910F9108951F93CF93DF93EC01CF
:10116000162F462F6AE80E9484081B83DF91CF91D7
:101170001F91089590E080E008950F931F93CF93FF
:10118000DF938C01EB01BC0184E01016110634F1F1
:1011900070E060E084E00115110501F10E946A022F
:1011A00066277727601B710B85E00E946A02BE01EB
:1011B00086E01C161D06BCF070E060E086E020971B
:1011C00091F00E946A02662777276C1B7D0B87E0EF
:1011D000DF91CF911F910F910C946A020E946A02D5
:1011E00070E060E0E1CF0E946A0270E060E0EFCF63
:1011F00064E670E088EC90E00E94BD0868EC70E066
:1012000080E090E00E94650368EC70E080E590E08B
:101210000E94BD086CE271E080E090E00E946503EE
:1012200070E060E090E080E00C94BD0860EA70E05F
:1012300080E590E00E94BD0864EF71E080E090E0FE
:101240000C94650368E770E080EA90E00E94BD08B6
:1012500064EF71E080E090E00C9465038E319105BD
:101260007CF0863491057CF08E3691057CF08639D1
:1012700091057CF0883592407CF08FEF9FEF0895C8
:1012800090E080E0089581E090E0089582E090E0B1
:10129000089583E090E0089584E090E00895FC01D3
:1012A00001900020E9F73197AF01481B590BBC01B1
:1012B00081E693E00C94A703CF93DF930E944F093C
:1012C000EC0188E492E00E944F098C0F9D1FDF9192
:1012D000CF910895CF93DF93EC01009721F562E35E
:1012E00070E08EEC9FEF0E94BD088BE492E00E94BC
:1012F0005C0965E070E080E090E00E946503C73023
:10130000D10509F048C08CE592E00E945C0980910B
:1013100000039091010383970CF46AC064EC7FEFA3
:101320008CE390E030C082309105B9F480E592E022
:101330000E945C098091F6029091F7028436910533
:101340003CF46FEF70E08FEF90E00E94BD08D1CFCA
:1013500068E770E088E790E0F8CF81309105D9F533
:1013600083E592E00E945C098091F4029091F5027D
:101370004E972CF46FEF70E081E09FEF04C062E3C2
:1013800070E08EEC9FEF0E94BD0865E070E080E0A9
:1013900090E00E946503CE010597029708F04AC0CD
:1013A0008FE592E00E945C09CC0FDD1FCE50DD4F2F
:1013B0008881998184369105C4F561E07FEF81E0F1
:1013C0009FEF0E94BD0865E070E080E090E0DF9153
:1013D000CF910C94650383309105A1F486E592E0EA
:1013E0000E945C098091F8029091F9024E972CF4CA
:1013F00061E07FEF8FEF90E0C6CF6EEC7FEF82E38E
:1014000090E0C1CF049709F07ACF89E592E00E947D
:101410005C098091FA029091FB0283970CF4AACFA9
:101420006CE370E084EC9FEFAECF68E87FEF88E874
:101430009FEFC7CFDF91CF9108958F929F92AF9288
:10144000BF92CF92DF92EF92FF920F931F93CF93B1
:10145000DF93CDB7DEB7A1970FB6F894DEBF0FBE0E
:10146000CDBF6C01990FEE08FF0819A28E010F5D28
:101470001F4F9AE0892E912CA12CB12CC701B601E7
:10148000A50194010E94CE1B605DF80162938F015B
:10149000FAE0CF16D104E104F10400F501151105BD
:1014A00011F1C8010E944F098C0188E492E00E946A
:1014B0004F09800F911FA1960FB6F894DEBF0FBEA3
:1014C000CDBFDF91CF911F910F91FF90EF90DF90F3
:1014D000CF90BF90AF909F908F900895C12CD12C4A
:1014E0007601C394CBCF10E000E0DFCF0F931F93C2
:1014F000CF93DF93EC01162F8B810E94B501898178
:101500009A81DC01ED91FC910190F081E02D612F39
:10151000199589819A810E945107888362E08B81A5
:101520000E94FC051092100380930F0389819A8119
:10153000DC01ED91FC910284F385E02D199500E02A
:10154000182F89819A81DC01ED91FC910284F38549
:10155000E02D1995802B912BDF91CF911F910F9149
:101560000895CF92DF92EF92FF92CF93DF93EC0139
:1015700041E060E80E94840841E06FEFCE010E94E4
:10158000840840E060E0CE010E948408498561E95A
:10159000CE010E94840841E060E0CE010E948408F0
:1015A00040E06FEFCE010E94840840E060E8CE0189
:1015B0000E94840868EFCE010E94760A2AE0C22EBB
:1015C000D12CE12CF12C009739F09C01AAE0B0E07D
:1015D0000E94F01B6B017C018B810E94B501898107
:1015E0009A81DC01ED91FC910190F081E02D64E0A5
:1015F000199589819A81DC01ED91FC910190F0812E
:10160000E02D60E01995A981BA81B7018827992753
:10161000ED91FC9111970190F081E02DCD0119958C
:10162000A981BA8199278F2D7E2D6D2DED91FC9189
:1016300011970190F081E02DCD01199589819A8152
:10164000DC01ED91FC910190F081E02D6C2D19955C
:1016500089819A810E945107888344E060E0CE012D
:10166000DF91CF91FF90EF90DF90CF900C948408A2
:101670000F931F93CF938C01C62F0E9438086C2FB5
:101680006460C8010E9438086C2F6B7FC8010E94FB
:10169000380883EC90E00197F1F7CF911F910F91FB
:1016A00008950F931F93CF93DF938C01D62FC42FF0
:1016B000607F642B0E94380B80E1D89FB001112419
:1016C0006C2BC801DF91CF911F910F910C94380BB7
:1016D00040E060E88EEF93E00C94510BCF93DF93E2
:1016E000EC010E94680B4C815D81688179818EEFED
:1016F00093E0DF91CF910C94A70341E00E94510B3E
:1017000081E090E008951F93CF93DF93EC01162FB3
:101710008B810E94B50189819A81DC01ED91FC9158
:101720000190F081E02D612F199589819A810E94A5
:101730005107888361E08B810E94FC0510921003A1
:1017400080930F0389819A81DC01ED91FC910284E1
:10175000F385E02D1995DF91CF911F910895CF93D7
:10176000DF93EC01462F416060E00E9484080E94F4
:10177000970378876F8363E1CE010E94830B8770A4
:1017800089F48C819D81892BB1F30E9497032F816D
:101790003885621B730B8C819D818617970758F7DC
:1017A00080E00BC041E06BE0CE010E94840840E085
:1017B00060E0CE010E94840881E0DF91CF9108951E
:1017C0008F929F92AF92BF92CF92DF92EF92FF9251
:1017D0000F931F93CF93DF936C017B01EA0160E5C8
:1017E0000E94830B8F5F880F90E09983888366E463
:1017F000C6010E94830B082F10E00F5F1F4F1D834F
:101800000C83A881B0E020E03FE24AE350E00E9470
:10181000BB1B6C507E4F8F4F9F4F38EE832E33E0B3
:10182000932EA12CB12CA50194010E94CE1BD801AE
:101830000E94C61B6C507E4F8F4F9F4FA501940195
:101840000E94CE1B2A873B874C875D8761E5C601D6
:101850000E94760A8C01112702C0000F111F9A9571
:10186000E2F70F5F1F4F1F830E83A881B0E020E0D7
:101870003FE24AE350E00E94BB1B6C507E4F8F4F0B
:101880009F4FA50194010E94CE1BD8010E94BB1B53
:101890006C507E4F8F4F9F4FA50194010E94CE1B2D
:1018A0002E873F87488B598B60E7C6010E94830BC8
:1018B0008F5F880F90E09B838A8361E7C6010E9457
:1018C000760A9C01992702C0880F991F3A95E2F782
:1018D000019699878887F7012381222331F02E8191
:1018E0003F81821B930B99878887AA81B0E020E013
:1018F0003FE24AE350E00E94BB1B6C507E4F8F4F8B
:101900009F4F28EEC22E23E0D22EE12CF12CA7010E
:1019100096010E94CE1BA885B9850E94BB1B6C5006
:101920007E4F8F4F9F4FA70196010E94CE1B2A8B9F
:101930003B8B4C8B5D8BDF91CF911F910F91FF9073
:10194000EF90DF90CF90BF90AF909F908F900895D1
:10195000CF93DF93EB0161E00E94830B84FB992717
:1019600090F9988383FB992790F99A8382FB9927B2
:1019700090F9998386FB992790F99B83881F882784
:10198000881F8C83DF91CF9108953F924F925F9291
:101990006F927F928F929F92AF92BF92CF92DF927F
:1019A000EF92FF920F931F93CF93DF93CDB7DEB7E4
:1019B000A1970FB6F894DEBF0FBECDBF8C0160ECCF
:1019C0000E94830B8E3E09F09DC069E8C8010E9409
:1019D000830B482F416069E8C8010E94840840E0F9
:1019E00068E8C8010E94840841E060E8C8010E94DC
:1019F000840841E06FEFC8010E94840840E060E085
:101A0000C8010E94840861E9C8010E94830BD801C3
:101A100019968C9341E060E0C8010E94840840E080
:101A20006FEFC8010E94840840E060E8C8010E948E
:101A3000840860E6C8010E94830B482F426160E67B
:101A4000C8010E94840840E250E064E4C8010E949A
:101A50004F084FEF61E0C8010E94840841E060E850
:101A6000C8010E94840841E06FEFC8010E94840809
:101A700040E060E0C8010E94840846E06FEFC801C2
:101A80000E94840863E8C8010E94830B482F4460C9
:101A900063E8C8010E94840847E06FEFC8010E9414
:101AA000840841E061E8C8010E94840841E060E8E0
:101AB000C8010E9484084BE664E9C8010E948408BA
:101AC00040E063E8C8010E9484080E949703F8017F
:101AD0007087678363E8C8010E94830B811114C07B
:101AE000D80114968D919C91892BA1F30E949703A4
:101AF000F80127813085621B730B848195818617DD
:101B0000970740F7F12CD5C341E063E8C8010E9474
:101B1000840862E9C8010E94830BD82E40E061E886
:101B2000C8010E94840846E06FEFC8010E94840843
:101B300063E8C8010E94830B482F4B7F63E8C8010C
:101B40000E94840841E06FEFC8010E94840841E0D0
:101B500060E0C8010E94840840E06FEFC8010E9465
:101B6000840840E060E8C8010E948408D801139608
:101B70008C910E94B501F80181819281DC01ED9187
:101B8000FC910190F081E02D60EB1995F8018181C5
:101B900092810E945107D8018C9366E013968C9134
:101BA0000E94FC051092100380930F037E01B7E1A1
:101BB000EB0EF11C3701B7E0CB2ECA94CC2071F0AC
:101BC000F80181819281DC01ED91FC910284F38521
:101BD000E02D1995F30181933F01EFCF41E06FEFC5
:101BE000C8010E94840840E06FE4C8010E94840894
:101BF0004CE26EE4C8010E94840840E06FEFC80127
:101C00000E94840844EB66EBC8010E948408BCE093
:101C1000D7FEB0E0A0E090E061E070E08D2D8F771E
:101C2000492F46954695469550E0F701E40FF51F7C
:101C30002081F92FF770DF2E9B1710F08A1331C027
:101C4000F701E40FF51FAB0101C0440FDA94EAF786
:101C50004095242320839F5F903311F7D80113967A
:101C60008C910E94B501F80181819281DC01ED9196
:101C7000FC910190F081E02D60EB1995A7E0DA2E40
:101C8000F80181819281DA94DD20A9F0D7016D916C
:101C90007D01DC01ED91FC910190F081E02D199521
:101CA000EFCF30E002C035952795FA95E2F720FF97
:101CB000D2CFAF5FD0CF0E945107F801808341E0BF
:101CC0006FEFC8010E94840840E060E0C8010E94F4
:101CD000840840E06FEFC8010E94840840E069E09A
:101CE000C8010E94840840E060E1C8010E948408A5
:101CF00040E061E1C8010E94840841E064E2C8015B
:101D00000E9484084FEF65E2C8010E94840840E009
:101D100065E7C8010E94840841E06FEFC8010E9496
:101D200084084CE26EE4C8010E94840840E068E444
:101D3000C8010E94840840E260E3C8010E94840850
:101D400040E06FEFC8010E94840849E060E3C801E9
:101D50000E94840840E064E5C8010E94840844E0D1
:101D600061E3C8010E94840843E062E3C8010E9465
:101D7000840843E860E4C8010E94840845E266E400
:101D8000C8010E94840840E060E6C8010E948408FF
:101D900040E067E2C8010E94840846E060E5C801AF
:101DA0000E94840840E061E5C8010E94840846E979
:101DB00062E5C8010E94840848E066E5C8010E9407
:101DC000840840E367E5C8010E94840840E061E6BA
:101DD000C8010E94840840E062E6C8010E948408AD
:101DE00040E064E6C8010E94840840E065E6C8015E
:101DF0000E94840840EA66E6C8010E94840841E027
:101E00006FEFC8010E94840842E362E2C8010E94A9
:101E1000840844E167E4C8010E9484084FEF69E444
:101E2000C8010E94840840E06AE4C8010E94840856
:101E300040E06FEFC8010E9484084AE06AE7C801E9
:101E40000E94840840E06BE7C8010E94840841E2D8
:101E500068E7C8010E94840841E06FEFC8010E9452
:101E6000840844E363E2C8010E94840840E062E41D
:101E7000C8010E9484084FEF64E4C8010E948408EE
:101E800046E265E4C8010E94840845E066E4C801B2
:101E90000E94840840E460E4C8010E94840846E08F
:101EA0006EE0C8010E9484084AE160E2C8010E9415
:101EB000840840E463E4C8010E94840840E06FEFB6
:101EC000C8010E94840843E064E3C8010E948408BA
:101ED00044E465E3C8010E94840841E06FEFC80153
:101EE0000E94840844E061E3C8010E94840849E03C
:101EF0006BE4C8010E94840845E06CE4C8010E94BC
:101F0000840844E06DE4C8010E94840840E06FEF5B
:101F1000C8010E94840840E064E4C8010E9484086B
:101F200040E265E4C8010E94840848E067E4C80113
:101F30000E94840848E268E4C8010E94840840E0E6
:101F400067E6C8010E94840844E060E7C8010E9477
:101F5000840841E061E7C8010E9484084EEF62E70F
:101F6000C8010E94840840E066E7C8010E94840816
:101F700040E067E7C8010E94840841E06FEFC801B4
:101F80000E94840841E06DE0C8010E94840840E09E
:101F90006FEFC8010E94840841E060E8C8010E9418
:101FA000840848EF61E0C8010E94840841E06FEFB7
:101FB000C8010E94840841E06EE8C8010E948408BC
:101FC00041E060E0C8010E94840840E06FEFC80172
:101FD0000E94840840E060E8C8010E94840844E050
:101FE0006AE0C8010E94840864E8C8010E94830B6B
:101FF000482F4F7E64E8C8010E94840841E06BE0EE
:10200000C8010E948408BE01635E7F4FC8010E9420
:10201000A80CAE014F5F5F4FBE01635E7F4FC801EA
:102020000E94E00B8D8D882309F4F2C08B859C857E
:10203000AD85BE858C57924FAF4FBF4F2F8D22235A
:1020400009F4EBC04B855C856D857E854E545D4FF4
:102050006F4F7F4F440F551F661F771F840F951FCB
:10206000A61FB71F28A1222361F04F8558896989CF
:102070007A894C565D4F6F4F7F4F840F951FA61F77
:10208000B71F29A1222361F04B895C896D897E8964
:102090004A5D5D4F6F4F7F4F840F951FA61FB71F7F
:1020A000F80182879387A487B58748EE61E0C8016D
:1020B0000E948408D8011A96CD90DD90ED90FC9096
:1020C0001D97BE01635E7F4FC8010E94A80CAE0140
:1020D0004F5F5F4FBE01635E7F4FC8010E94E00B00
:1020E0008D8D882309F4A6C08B859C85AD85BE8522
:1020F0008C57924FAF4FBF4F2F8D222309F49FC0B3
:102100004B855C856D857E854E545D4F6F4F7F4F4F
:10211000440F551F661F771F840F951FA61FB71FFB
:1021200038A0332061F04F85588969897A894C56E7
:102130005D4F6F4F7F4F840F951FA61FB71F29A1BB
:10214000222309F498C04C015D01E6E28E0EE2E024
:102150009E1EA11CB11CC814D904EA04FB0408F497
:102160008AC0AB81B0E020E03FE24AE350E00E9449
:10217000BB1B2B013C01F4EF4F0EF1E05F1E611C15
:10218000711CA7019601281939094A095B09A8EEB3
:10219000B3E00E94BB1B4B015C01C301B20120ED07
:1021A00037E040E050E00E94CE1B820E931EA41E3A
:1021B000B51EC301B20128EE33E040E050E00E94BA
:1021C000CE1BC501B4010E94CE1B332031F08F819C
:1021D0009885280F391F411D511D211531054105D5
:1021E000510509F47FC0BA01A901415051096109A3
:1021F000710990E080E02A013B01442445284628EB
:10220000472851F176956795579547950196F3CFF5
:1022100086E39BE0A0E0B0E011CF2E8D222309F4ED
:1022200021CF4B855C856D857E854C565D4F6F4F0C
:102230007F4F14CF86E39BE0A0E0B0E05DCF2E8D12
:10224000222309F46DCF4B855C856D857E854C56C8
:102250005D4F6F4F7F4F60CF982F8827482B592BAA
:1022600061E7C8010E944F08D8011A96CD92DD920D
:10227000ED92FC921D9741E061E0C8010E94840844
:1022800060E4C8010E94AF0B882309F43BCC42E014
:1022900061E0C8010E94840860E0C8010E94AF0BA1
:1022A000F82E882309F42ECC48EE61E0C8010E9484
:1022B00084088F2DA1960FB6F894DEBF0FBECDBF58
:1022C000DF91CF911F910F91FF90EF90DF90CF9012
:1022D000BF90AF909F908F907F906F905F904F9046
:1022E0003F90089550E040E0BBCF0F931F93CF93F2
:1022F000DF93EC010E94970378876F8363E1CE013F
:102300000E94830B8770C9F48C819D81892BB1F366
:102310000E9497032F813885621B730B8C819D81EE
:102320008617970758F781E08E830FEF1FEFC801DC
:10233000DF91CF911F910F9108956EE1CE010E9420
:10234000760A8C0141E06BE0CE010E948408EFCF59
:10235000EF92FF920F931F93CF93DF93EC017B01DA
:102360008A0188819981009729F02A813B8124176D
:10237000350788F4B8016F5F7F4F0E942C1D0097CE
:1023800091F0998388831B830A832C813D81232BC1
:1023900011F4FC0110821D830C83B701888199819F
:1023A0000E94161E0CC088819981009711F00E942E
:1023B000A31C198218821D821C821B821A82CE01E4
:1023C000DF91CF911F910F91FF90EF90089585EDD0
:1023D0008093BC008091590390915A03A0915B03B4
:1023E000B0915C030796A11DB11D23E0B695A7959A
:1023F000979587952A95D1F72091BC0024FD03C0BD
:102400001092570308954091590350915A036091D7
:102410005B0370915C03452B462B472B69F30097B8
:10242000A105B10541F025E32A95F1F700000197D8
:10243000A109B109E1CF809158030C94DB051F92EB
:102440000F920FB60F9211242F933F938F939F9368
:10245000AF93BF938091070390910803A091090364
:10246000B0910A033091060323E0230F2D3758F56E
:102470000196A11DB11D209306038093070390933D
:102480000803A0930903B0930A0380910B03909172
:102490000C03A0910D03B0910E030196A11DB11D77
:1024A00080930B0390930C03A0930D03B0930E0342
:1024B000BF91AF919F918F913F912F910F900FBE40
:1024C0000F901F90189526E8230F0296A11DB11DAD
:1024D000D2CF1F920F920FB60F9211240BB60F920C
:1024E0002F933F934F935F936F937F938F939F931C
:1024F000AF93BF93EF93FF93E0910E02F0910F0221
:102500001995FF91EF91BF91AF919F918F917F911D
:102510006F915F914F913F912F910F900BBE0F9054
:102520000FBE0F901F9018951F920F920FB60F922B
:1025300011240BB60F922F933F934F935F936F939A
:102540007F938F939F93AF93BF93EF93FF93E0910C
:102550000C02F0910D021995FF91EF91BF91AF918F
:102560009F918F917F916F915F914F913F912F91AB
:102570000F900BBE0F900FBE0F901F9018951F92DB
:102580000F920FB60F9211240BB60F922F933F9319
:102590004F935F936F937F938F939F93AF93BF936B
:1025A000EF93FF93E0910202F09103021995FF91DE
:1025B000EF91BF91AF919F918F917F916F915F91BB
:1025C0004F913F912F910F900BBE0F900FBE0F9028
:1025D0001F9018951F920F920FB60F9211240BB6F1
:1025E0000F922F933F934F935F936F937F938F93AC
:1025F0009F93AF93BF93EF93FF93E0910002F0910D
:1026000001021995FF91EF91BF91AF919F918F9129
:102610007F916F915F914F913F912F910F900BBEE2
:102620000F900FBE0F901F9018951F920F920FB62C
:102630000F9211240BB60F922F933F934F935F93FA
:102640006F937F938F939F93AF93BF93EF93FF937A
:10265000E0910A02F0910B021995FF91EF91BF9161
:10266000AF919F918F917F916F915F914F913F912A
:102670002F910F900BBE0F900FBE0F901F901895CB
:102680001F920F920FB60F9211240BB60F922F9339
:102690003F934F935F936F937F938F939F93AF93EA
:1026A000BF93EF93FF93E0910802F091090219950F
:1026B000FF91EF91BF91AF919F918F917F916F911A
:1026C0005F914F913F912F910F900BBE0F900FBED6
:1026D0000F901F9018951F920F920FB60F92112412
:1026E0000BB60F922F933F934F935F936F937F930C
:1026F0008F939F93AF93BF93EF93FF93E091060265
:10270000F09107021995FF91EF91BF91AF919F91C1
:102710008F917F916F915F914F913F912F910F908A
:102720000BBE0F900FBE0F901F9018951F920F9227
:102730000FB60F9211240BB60F922F933F934F9326
:102740005F936F937F938F939F93AF93BF93EF9319
:10275000FF93E0910402F09105021995FF91EF912A
:10276000BF91AF919F918F917F916F915F914F91A9
:102770003F912F910F900BBE0F900FBE0F901F90A7
:1027800018951F920F920FB60F9211240BB60F924D
:102790002F933F934F935F936F937F938F939F9369
:1027A000AF93BF93EF93FF9381E693E00E941B04E6
:1027B000FF91EF91BF91AF919F918F917F916F9119
:1027C0005F914F913F912F910F900BBE0F900FBED5
:1027D0000F901F9018951F920F920FB60F92112411
:1027E0000BB60F922F938F939F93EF93FF93E091EC
:1027F0007103F09172038081E0917703F091780387
:1028000082FD1DC0908180917A038F5F8F7320912C
:102810007B03821741F0E0917A03F0E0EF59FC4F1F
:10282000958F80937A03FF91EF919F918F912F91D4
:102830000F900BBE0F900FBE0F901F9018958081C8
:10284000F2CF1F920F920FB60F9211240BB60F9278
:102850002F933F934F935F936F937F938F939F93A8
:10286000AF93BF93EF93FF9348E251E064E271E0CE
:1028700090E080E00E94DB04FF91EF91BF91AF9167
:102880009F918F917F916F915F914F913F912F9188
:102890000F900BBE0F900FBE0F901F9018951F92B8
:1028A0000F920FB60F9211240BB60F922F933F93F6
:1028B0004F935F936F937F938F939F93AF93BF9348
:1028C000EF93FF9348EA50E064EA70E083E090E021
:1028D0000E94DB04FF91EF91BF91AF919F918F9187
:1028E0007F916F915F914F913F912F910F900BBE10
:1028F0000F900FBE0F901F9018951F920F920FB65A
:102900000F9211240BB60F922F933F934F935F9327
:102910006F937F938F939F93AF93BF93EF93FF93A7
:1029200048E950E064E970E082E090E00E94DB0456
:10293000FF91EF91BF91AF919F918F917F916F9197
:102940005F914F913F912F910F900BBE0F900FBE53
:102950000F901F9018951F920F920FB60F9211248F
:102960000BB60F922F933F934F935F936F937F9389
:102970008F939F93AF93BF93EF93FF9348E850E0FB
:1029800064E870E081E090E00E94DB04FF91EF9149
:10299000BF91AF919F918F917F916F915F914F9177
:1029A0003F912F910F900BBE0F900FBE0F901F9075
:1029B00018951F920F920FB60F9211240BB60F921B
:1029C0002F933F934F935F936F937F938F939F9337
:1029D000AF93BF93EF93FF938091B900887F8036C8
:1029E00009F44DC008F040C0883209F4A9C028F5A8
:1029F000803109F49DC0C8F4882309F4FBC08830F5
:102A000009F496C0FF91EF91BF91AF919F918F9183
:102A10007F916F915F914F913F912F910F900BBEDE
:102A20000F900FBE0F901F901895883109F488C041
:102A3000803241F78093350314C0803409F49DC07F
:102A400040F48033B9F38833E9F68093350385EC9D
:102A5000B0C0803509F485C0883509F496C0883443
:102A600089F60E94E711CECF883909F48CC038F579
:102A7000883729F050F4883611F0803719F683E052
:102A8000809357031092E30257C0883809F47BC043
:102A9000803919F0803809F0B5CF8091E302803297
:102AA00008F071C0E091E30281E08E0F8093E302B1
:102AB0008091BB00F0E0ED53FD4F80833DC0803B33
:102AC00039F0E0F4803A09F479C0883A09F09ACFF5
:102AD00084E0809357031092C2021092C102E091E9
:102AE000E802F091E90219958091C10281110FC0AD
:102AF00081E08093C1021092A10209C0803C09F4D8
:102B0000A6CF883C09F4A3CF883B09F07BCFE091A6
:102B1000C20281E08E0F8093C202F0E0EF55FD4FBC
:102B200080818093BB009091C2028091C10229C034
:102B3000809132038093BB0085EC8093BC0062CF10
:102B40009091340380913303981758F5E091340342
:102B500081E08E0F80933403F0E0EF5EFC4F8081C4
:102B6000E9CFE091340381E08E0F809334038091AC
:102B7000BB00F0E0EF5EFC4F8083909134038091C6
:102B800033039817C8F285E8D8CFE091340381E089
:102B90008E0F809334038091BB00F0E0EF5EFC4F1A
:102BA00080838091360381115CCF81E08093310373
:102BB00084EA8093BC001092570324CF85EC809365
:102BC000BC00109257038091E302803230F4E09110
:102BD000E302F0E0ED53FD4F10826091E30270E0FC
:102BE000E091EA02F091EB0283EC92E019951092E9
:102BF000E30208CF1092350334CF10926403109291
:102C0000630388EE93E0A0E0B0E0809365039093C7
:102C10006603A0936703B09368032CE132E030931E
:102C200062032093610325EC30E030936E03209320
:102C30006D0324EC30E03093700320936F0320EC9D
:102C400030E0309372032093710321EC30E0309335
:102C500074032093730322EC30E0309376032093C7
:102C6000750326EC30E030937803209377031092BD
:102C70007A0310927B0310927C0310927D031092D2
:102C8000FF041092FE048093000590930105A09329
:102C90000205B09303058EE292E09093FD048093C9
:102CA000FC04109201041092000480E492E09093DE
:102CB000FF038093FE031092070487E280930204CF
:102CC00080E18093080482E08093090410920A0452
:102CD00080919B04803308F0C1C091E0980F9093DD
:102CE0009B0480939F0490E0FC01EE0FFF1FE80F10
:102CF000F91FE55FFB4F88EB9BE092838183809116
:102D00009B04803308F0AEC091E0980F90939B0431
:102D100080939C0490E0FC01EE0FFF1FE80FF91F69
:102D2000E55FFB4F88EB9BE0928381838CEF94E01F
:102D30009093A3048093A20448E451EE6AE77FE3F2
:102D40004093F8045093F9046093FA047093FB04E1
:102D50001092AC041092AD041092AE041092AF0425
:102D60001092B0041092B1041092B2041092B30405
:102D70001092B4041092B5041092B6041092B704E5
:102D80001092B8041092B9041092BA041092BB04C5
:102D90001092BC041092BD041092BE041092BF04A5
:102DA0001092C0041092C1041092C2041092C30485
:102DB00090935E0580935D0529E220935F05109254
:102DC0006105109260051092620590935005809302
:102DD0004F05209351051092530510925205109201
:102DE000540590934205809341052093430510922A
:102DF0004505109244051092460590933405809342
:102E00003305209335051092370510923605109240
:102E10003805909326058093250520932705109269
:102E200029051092280510922A0590931805809381
:102E300017052093190510921B0510921A05109280
:102E40001C0590930A058093090520930B051092A9
:102E50000D0510920C0510920E0508958FEF8093CA
:102E60009F044DCF8FEF80939C0460CFCF93DF936F
:102E700000D000D0CDB7DEB7789484B5826084BD31
:102E800084B5816084BD85B5826085BD85B581606E
:102E900085BD80916E00816080936E0010928100EC
:102EA00080918100826080938100809181008160A7
:102EB0008093810080918000816080938000809168
:102EC000B10084608093B1008091B00081608093F4
:102ED000B000809191008260809391008091910078
:102EE0008160809391008091900081608093900038
:102EF0008091A10082608093A1008091A1008160F7
:102F00008093A1008091A00081608093A0008091B7
:102F10002101826080932101809121018160809351
:102F200021018091200181608093200180917A00AD
:102F3000846080937A0080917A00826080937A0026
:102F400080917A00816080937A0080917A00806815
:102F500080937A001092C100E0917103F0917203A6
:102F600082E08083E0916D03F0916E031082E09126
:102F70006F03F09170038FEC808310927903E091DE
:102F80007503F091760386E08083E0917303F091FE
:102F90007403808180618083E0917303F0917403F6
:102FA000808188608083E0917303F0917403808155
:102FB00080688083E0917303F091740380818F7D3A
:102FC00080831092100310920F0310925E031092F0
:102FD0005D030E94BD0584EAE82E83E0F82EF0929E
:102FE000E902E092E80205EA13E01093EB02009395
:102FF000EA0284E00E94BF0185E00E94BF0186E0F2
:103000000E94BF0187E00E94BF0170E060E090E095
:1030100080E00E94BD088DE00E94BF0160E08DE06D
:103020000E94DE0185E30E94BF0186E10E94BF018C
:1030300088E10E94BF018AE10E94BF018CE10E94E9
:10304000BF018EE10E94BF0180E20E94BF0182E2C7
:103050000E94BF0190E080E00E941D0A60E086E1CE
:103060000E94DE0160E088E10E94DE0160E08AE10A
:103070000E94DE0160E08CE10E94DE0160E08EE1F2
:103080000E94DE0160E080E20E94DE0160E082E2F8
:103090000E94DE0181E090E00E941D0A61E086E16D
:1030A0000E94DE0161E088E10E94DE0161E08AE1C8
:1030B0000E94DE0161E08CE10E94DE0161E08EE1B0
:1030C0000E94DE0161E080E20E94DE0161E082E2B6
:1030D0000E94DE016AE070E080E090E00E946503FB
:1030E00082E090E00E941D0A61E086E10E94DE011C
:1030F00060E088E10E94DE0160E08AE10E94DE017A
:1031000060E08CE10E94DE0160E08EE10E94DE0161
:1031100060E080E20E94DE0160E082E20E94DE0167
:1031200083E090E00E941D0A6AE070E080E090E099
:103130000E94650368E28CE595E00E94AC0884E09B
:1031400090E00E941D0A61E088E10E94DE016AE0D1
:1031500070E080E090E00E94650360E38EE495E01B
:103160000E94AC0885E090E00E941D0A61E08AE1BF
:103170000E94DE016AE070E080E090E00E9465035A
:1031800061E380E495E00E94AC0886E090E00E9454
:103190001D0A61E08CE10E94DE016AE070E080E0DF
:1031A00090E00E94650362E382E395E00E94AC0830
:1031B00087E090E00E941D0A61E08EE10E94DE013E
:1031C0006AE070E080E090E00E94650363E384E2DF
:1031D00095E00E94AC0888E090E00E941D0A61E042
:1031E00080E20E94DE016AE070E080E090E00E94F0
:1031F000650364E386E195E00E94AC0889E090E015
:103200000E941D0A61E082E20E94DE016AE070E035
:1032100080E090E00E94650365E388E095E00E940D
:10322000AC088AE090E00E941D0A6AE070E080E04D
:1032300090E00E9465038CE595E00E94C50C8EE449
:1032400095E00E94C50C80E495E00E94C50C82E3E5
:1032500095E00E94C50C84E295E00E94C50C86E1D1
:1032600095E00E94C50C88E095E00E94C50C8BE0BB
:1032700090E00E941D0A84EF91E090936105809395
:103280006005909353058093520590934505809374
:1032900044059093370580933605909329058093D4
:1032A000280590931B0580931A0590930D05809334
:1032B0000C058CE090E00E941D0A8CE595E00E94D0
:1032C000B10A8EE495E00E94B10A80E495E00E9484
:1032D000B10A82E395E00E94B10A84E295E00E947F
:1032E000B10A86E195E00E94B10A88E095E00E946B
:1032F000B10A8DE090E00E941D0A10921003109216
:103300000F0310925E0310925D030E94BD05F092C0
:10331000E902E092E8021093EB020093EA021092B5
:10332000030480910904823018F098E0909303041C
:103330008093060462E370E080E090E00E94650301
:1033400060910A048EEF93E00E94380868EE73E003
:1033500080E090E00E94650360E38EEF93E00E94BE
:10336000380B0BE416E4C8010197F1F760E38EEF28
:1033700093E00E94380BC8010197F1F760E38EEFEC
:1033800093E00E94380B83E592E00197F1F760E249
:103390008EEF93E00E94380B60910304606240E07E
:1033A0008EEF93E00E94510B84E08093040440E090
:1033B0006CE08EEF93E00E94510B40E061E08EEFF5
:1033C00093E00E94510B8BE39FE10197F1F780910D
:1033D000070481110E94680B82E08093050440E09D
:1033E00066E08EEF93E00E94510B40E062E08EEFCA
:1033F00093E00E94510B8BE39FE10197F1F788E086
:1034000080930A0460E08EEF93E00E9438081A82ED
:1034100019821C821B821E821D8247E050E068E6F2
:1034200072E0CE0101960E94A811CE0101960E9481
:103430006E0B89819A81009711F00E94A31C0E9453
:103440009F010E942E090091100210911102801715
:103450009107A9F362E370E080E090E00E946503C9
:103460000E949F010E942E090817190741F39093AB
:1034700011028093100297FDE2CF8230910509F48A
:1034800031C10CF028C1009709F431C18130910598
:1034900009F428C1809102039091030382309105C1
:1034A00009F446C10CF028C1892B09F434C161E04C
:1034B0008DE00E94DE0164EC79E080E090E00E9403
:1034C00065031A8219821C821B821E821D824EE0B5
:1034D00050E060E772E0CE0101960E94A811CE0193
:1034E00001960E946E0B89819A81009711F00E94CB
:1034F000A31C61E085E30E94DE01E091EC02F09103
:10350000ED02199560E085E30E94DE0170E060E065
:1035100090E080E00E94BD0810E000E08091F102A0
:10352000882339F00E9497036C3B72408105910516
:10353000A8F38091F002882339F00E9497036C3B36
:10354000724081059105A8F38091EF02882339F03C
:103550000E9497036C3B724081059105A8F380910E
:10356000EE02882339F00E9497036C3B724081057C
:103570009105A8F31092F1021092F0021092EF025E
:103580001092EE02E0900403F09005038CE595E0C4
:103590000E9475118CE595E00E9475119093F502DB
:1035A0008093F4028EE495E00E9475118EE495E01C
:1035B0000E9475119093F7028093F60280E495E0E3
:1035C0000E94751180E495E00E9475119093F902B4
:1035D0008093F80282E395E00E94751182E395E002
:1035E0000E9475119093FB028093FA0284E295E0A9
:1035F0000E94751184E295E00E9475119093FD027E
:103600008093FC0286E195E00E94751186E195E0C9
:103610000E9475119093FF028093FE0288E095E06E
:103620000E94751188E095E00E9475119093010346
:1036300080930003E4EFF2E021E030E080E090E0EE
:1036400040E25EE4619171916417750714F4C90159
:10365000AB012F5F3F4F28303105A1F7443F514068
:1036600014F080E090E0F70119950E949F010E94FC
:103670002E09E0901002F09011028E159F0541F185
:1036800069E170E080E090E00E9465030E949F0184
:103690000E942E09E816F906D9F090931102809342
:1036A000100297FD15C08230910509F45AC00CF044
:1036B00051C0009709F45AC08130910509F451C0F6
:1036C0008091020390910303019711F4F801199579
:1036D0000E94AA0423CF8330910521F08430910504
:1036E00009F0D8CE9093030380930203D3CE1092B7
:1036F000030310920203CECE8330910511F104979B
:1037000009F0D5CE8AE699E09093050380930403EF
:1037100082E299E008C08AE699E0909305038093DD
:10372000040388EF98E09093ED028093EC02BFCE03
:103730008AE699E0909305038093040383EA93E07B
:10374000F2CF8AE699E0909305038093040386E123
:1037500099E0E9CF8330910521F08430910509F09B
:10376000AFCF9093030380930203AACF1092030379
:1037700010920203A5CF0E94F01BA59F900DB49F4D
:10378000900DA49F800D911D11240895B7FF0C94F6
:10379000BB1B0E94BB1B821B930B0895A1E21A2E38
:1037A000AA1BBB1BFD010DC0AA1FBB1FEE1FFF1FE5
:1037B000A217B307E407F50720F0A21BB30BE40B35
:1037C000F50B661F771F881F991F1A9469F760957C
:1037D0007095809590959B01AC01BD01CF01089536
:1037E000A29FB001B39FC001A39F700D811D112442
:1037F000911DB29F700D811D1124911D0895EE0F32
:10380000FF1F881F8BBF0790F691E02D19940F932F
:103810001F93CF93DF938230910510F482E090E004
:10382000E0916C05F0916D0530E020E0B0E0A0E0A3
:10383000309799F42115310509F44AC0281B390B3A
:1038400024303105D8F58A819B816115710589F194
:10385000FB0193838283FE0111C04081518102816B
:10386000138148175907E0F04817590799F4109742
:1038700061F012960C93129713961C933296CF0117
:10388000DF91CF911F910F91089500936C051093D4
:103890006D05F4CF2115310551F04217530738F06B
:1038A000A901DB019A01BD01DF01F801C1CFEF01E0
:1038B000F9CF90936D0580936C05CDCFFE01E20F9B
:1038C000F31F819391932250310939832883D7CFF5
:1038D00020916A0530916B05232B41F4209114024D
:1038E0003091150230936B0520936A0520911202E6
:1038F000309113022115310541F42DB73EB74091A7
:10390000160250911702241B350BE0916A05F091C5
:103910006B05E217F307A0F42E1B3F0B281739079E
:1039200078F0AC014E5F5F4F2417350748F04E0F1B
:103930005F1F50936B0540936A05819391939FCFCE
:10394000F0E0E0E09CCFCF93DF930097E9F0FC013B
:10395000329713821282A0916C05B0916D05ED0132
:1039600030E020E01097A1F420813181820F931F75
:1039700020916A0530916B052817390709F061C05D
:10398000F0936B05E0936A05DF91CF910895EA010A
:10399000CE17DF07E8F54A815B819E01411551058D
:1039A000B1F7E901FB83EA8349915991C40FD51F0F
:1039B000EC17FD0761F4808191810296840F951FB9
:1039C000E90199838883828193819B838A83F0E0D4
:1039D000E0E012968D919C9113970097B9F52D9187
:1039E0003C911197CD010296820F931F20916A0599
:1039F00030916B052817390739F6309751F5109239
:103A00006D0510926C05B0936B05A0936A05BCCF51
:103A1000D383C28340815181840F951FC817D90772
:103A200061F44E5F5F4F88819981480F591F518320
:103A300040838A819B81938382832115310509F01C
:103A4000B0CFF0936D05E0936C059ECFFD01DC01D6
:103A5000C0CF13821282D7CF4F925F926F927F9224
:103A60008F929F92AF92BF92CF92DF92EF92FF928E
:103A70000F931F93CF93DF938C01009799F4CB01A1
:103A8000DF91CF911F910F91FF90EF90DF90CF903A
:103A9000BF90AF909F908F907F906F905F904F906E
:103AA0000C94071CFC01E60FF71F9C012250310902
:103AB000E217F30708F4AEC0D901CD91DC9111975C
:103AC000C617D70720F1C530D10578F0CE0104978D
:103AD0008617970750F0C61BD70B2297C193D19337
:103AE0006D937C93CF010E94A31CC801DF91CF91FD
:103AF0001F910F91FF90EF90DF90CF90BF90AF900C
:103B00009F908F907F906F905F904F9008955B0192
:103B1000AC1ABD0A4C018C0E9D1EA0916C05B09193
:103B20006D05512C412CF12CE12C109731F5809131
:103B30006A0590916B058815990509F05CC04616D9
:103B4000570608F058C08091120290911302009716
:103B500041F48DB79EB74091160250911702841B15
:103B6000950BE817F90708F055C0F0936B05E09343
:103B70006A05F90171836083B8CF8D919C9111978B
:103B800012966C90129713967C901397A815B9050E
:103B900059F56C0142E0C40ED11CCA14DB0420F1BB
:103BA000AC014A195B09DA011296159780F062821E
:103BB000738251834083D9016D937C93E114F104A6
:103BC00071F0D7011396FC93EE9312978ECF229645
:103BD0008C0F9D1FF90191838083F301EFCFF09348
:103BE0006D05E0936C0581CF4816590608F42C0149
:103BF0007D01D3019ACFCB010E94071C7C01009765
:103C000049F0AE01B8010E940D1EC8010E94A31C1C
:103C100087016BCF10E000E068CFFB01DC0102C040
:103C200001900D9241505040D8F70895FB01DC01FE
:0E3C300001900D920020E1F70895F894FFCF67
:103C3E00A603A603A603A603A603A603A603A6032E
:103C4E00FFFF00006E058000000000003D04A7038A
:103C5E00D4038A040504E303F703000000002207DF
:103C6E00F506BA08CB06EE06DB06CC060000000011
:103C7E007D0BA703BA0895050D0A004E6F6E650001
:103C8E00464600464C00465200525200524C0042EC
:103C9E0052206F7220424C005374616E6462790040
:103CAE002020202020202020202020202020000046
:00000001FF
